:020000040800F2
:10000000401900200101000895100008510E000859
:1000100091100008610A00087B2100080000000020
:100020000000000000000000000000005D19000852
:10003000ED0B000800000000BB170008491A00087B
:100040001B0100081B0100081B0100081B01000820
:100050001B0100081B0100081B0100081B01000810
:100060001B0100081B0100081B0100081B01000800
:100070001B0100081B0100081B0100081B010008F0
:100080001B0100081B0100081B0100081B010008E0
:100090001B0100081B0100081B0100081B010008D0
:1000A0001B0100081B0100081B0100081B010008C0
:1000B0001B010008E11A00081B0100081B010008D1
:1000C0001B0100081B0100081B0100081B010008A0
:1000D0001B010008F91D0008891E00081B0100080B
:1000E0001B0100081B0100081B010008DFF80CD0F1
:1000F00000F04CFB00480047453100084019002043
:100100000648804706480047FEE7FEE7FEE7FEE7B1
:10011000FEE7FEE7FEE7FEE7FEE7FEE7811A0008DE
:10012000ED000008D2B201E000F8012B491EFBD21D
:1001300070470022F6E710B513460A4604461946F2
:10014000FFF7F0FF204610BD10B5002200E0521C62
:10015000835C8C5CA34201D1002BF8D1D8B2E1B210
:10016000401A10BD2DE9FE4F804681EA0300C00F02
:100170000C46009021F0004123F00045B8EB02004E
:10018000A94105D24046214690461C460B460246F0
:1001900023F00040104347D0270DC7F30A00C3F3F4
:1001A0000A510290401A019040286BDAC3F3130001
:1001B00040F4801B0098924620B10023D2EB030A42
:1001C00063EB0B0B01985946C0F14002504600F01A
:1001D00000FA06460D4650465946019A00F018FAB4
:1001E00010EB08006141002487EA115284EAE773AA
:1001F0001A4340D0009A62B3019A012A4FEA07528B
:1002000015DC001B61EB02014FF0004202EA0752CD
:10021000CDE90042001C41F5801132462B4600F02A
:100220004FFA03B0BDE8F08F40462146F9E7001BC6
:1002300061EB0201001C41F5801300185B4120189E
:10024000A2F5001747EB030140EAD570B6196D41DE
:1002500011E06D084FEA360645EAC0754FEA0752CD
:10026000001B61EB0201001C41F5801149084FEAB7
:1002700030000019514132462B4603B0BDE8F04F23
:1002800000F00FBA0098012240000023D0EB0202D8
:1002900063EBE073009821464FEAE074B8EB00008E
:1002A00061EB0401E9E783F000435BE781F0004183
:1002B00058E72DE9FE4F81EA030404F0004421F0E1
:1002C000004100944FF0000B23F0004350EA01047A
:1002D0005ED052EA03045BD0C3F30A54C1F30A555B
:1002E0002C44A4F2F3340194A0FB0254C1F3130193
:1002F00041F48011C3F3130343F4801301FB024460
:1003000000FB034E840A970A44EA815447EA835764
:10031000A4FB076802958D0A05FB07854FEA932C1D
:1003200004FB0C542705029D4FEA065847EA16378E
:10033000B5EB08056EEB070C870E920E47EA8117A6
:1003400042EA8312A7FB0201B6EB0B0164EB000447
:100350002B0D43EA0C335E1844EB1C50DA46514631
:10036000E7FB0201C5F313044FEA0B3343EA1453CE
:100370004FEA0432019C43EA0603A4F10C04029400
:10038000009CCDE900B400F09BF903B0BDE8F08F0C
:1003900000200146F9E72DE9F04D81EA030404F05D
:1003A000004B21F0004514464FF0000A23F00041B5
:1003B00050EA050220D054EA01021DD0C5F30A57C5
:1003C0000246C5F31303C1F31300C1F30A5640F408
:1003D000801543F48013A7EB0608101BD64608F2DD
:1003E000FD3873EB050002D308F1010801E0921813
:1003F0005B41B8F1000F03DA00200146BDE8F08D43
:1004000000204FF48011064684460EE0171B73EB64
:10041000050705D3121B63EB050306434CEA010CE9
:1004200049084FEA300092185B4150EA0107EDD1CC
:1004300052EA030012D082EA040083EA050108436D
:1004400005D0101BAB4106D20122002306E000229A
:100450004FF0004302E06FF0010253101AEB060068
:100460004CEB085110EB0A0041EB0B01BDE8F04DDD
:1004700000F017B9C10F80EAE0700844CA0796235C
:10048000002100F0E0B80EB540F2334102910021A6
:10049000CDE900110A460B4600F012F903B000BD89
:1004A00000F0004230F000400AD0C10D01F560714B
:1004B000C0F3160042EA0151C208400711437047D9
:1004C000002001467047000030B5041E71F10004A1
:1004D00004DB4FF00044404264EB0101141E73F151
:1004E000000405DB1C464FF00043524263EB04035B
:1004F000994208BF904230BD01F0004330B421F072
:10050000004150EA010206D00A0DA2F56072C1F363
:100510001301002A02DC30BC00207047440F44EA7B
:10052000C104C100E01830BC00EBC25000F082B83A
:10053000002801DBC0F10040002901DBC1F10041CE
:100540008142704730B50B4601460020202201242D
:1005500009E021FA02F59D4205D303FA02F5491B91
:1005600004FA02F52844151EA2F10102F1DC30BDA7
:100570002DE9F05F0546002092469B4688460646D8
:10058000814640241BE0284641464746224600F06B
:100590002FF853465A46C01A914110D311461846B7
:1005A000224600F016F82D1A67EB01084F46224646
:1005B0000120002100F00DF817EB00094E41201E2C
:1005C000A4F10104DFDC484631462A464346BDE833
:1005D000F09F202A04DB203A00FA02F10020704745
:1005E0009140C2F1200320FA03F319439040704771
:1005F000202A04DB203A21FA02F00021704721FA78
:1006000002F3D040C2F120029140084319467047DE
:10061000202A06DBCB17203A41FA02F043EAE073C6
:1006200006E041FA02F3D040C2F1200291400843B3
:10063000194670470029A8BF7047401C490008BFF1
:1006400020F00100704710B4B0FA80FC00FA0CF002
:1006500050EA010404BF10BC704749B1CCF120043A
:1006600021FA04F411FA0CF118BF012121430843C7
:10067000A3EB0C01CB1D4FEA00614FEA102042BFF3
:10068000002010BC704700EBC35010440029A4BFE9
:1006900010BC7047401C490008BF20F0010010BC8E
:1006A000704710B5141E73F1000408DA401C41F1C4
:1006B000000192185B411A4301D120F0010010BDE6
:1006C0002DE9F04D92469B4611B1B1FA81F202E05C
:1006D000B0FA80F220329046FFF77BFF04460F46C7
:1006E00040EA0A0041EA0B0153465A46084313D038
:1006F000114653EA010019D0C8F140025046FFF7F5
:1007000077FF05460E46504659464246FFF761FFC1
:10071000084305D0012004E020463946BDE8F08DAD
:100720000020054346EAE0762C4337430A986305E8
:10073000E40AA0EB08000022FD0A44EA47540A300C
:1007400002D500200146E9E7010510196941DDE9FC
:10075000084500196941BDE8F04DA2E7C1F30A520E
:10076000C1F3130140F2FF3341F480119A4202DADF
:1007700000200146704740F233439A42A2F23342CE
:1007800002DC5242FFF734BFFFF723BF064C074D90
:1007900006E0E06840F0010394E807009847103451
:1007A000AC42F6D3FFF7A6FC60460008804600087E
:1007B00021B1826842F00102826003E0826822F087
:1007C000010282607047000010B50446124884425E
:1007D00008D10121401501F01DF80021601501F03C
:1007E00019F817E00D48844208D10121001501F0E5
:1007F00011F80021201501F00DF80BE008488442A3
:1008000008D10121C80301F005F800214FF4004090
:1008100001F000F810BD0000002401400028014054
:10082000003C0140014600208A6802F004020AB13F
:10083000012000E0002070470146C86C80B270477C
:100840000246002013680B400BB1012000E000209D
:100850007047014600208A6802F008020AB10120B0
:1008600000E000207047000030B502460020002361
:1008700050680F4C20400D790C6844EA0524204351
:10088000506090680B4C2040D1E902542C434D79C4
:1008900044EA450420439060D06A20F470000C7C48
:1008A000641EE4B2234340EA0350D06230BD00002E
:1008B000FFFEF0FFFDF7F1FFF0B504460D46002006
:1008C0000021092D11DDE068A5F10A0606EB4607B7
:1008D000072606FA07F18843A5F10A0606EB460645
:1008E00003FA06F10843E0600CE0206905EB4507D8
:1008F000072606FA07F1884305EB450603FA06F1D9
:1009000008432061072A0FDA606B561E06EB860744
:100910001F2606FA07F18843561E06EB860605FADF
:1009200006F10843606322E00D2A0FDA206BD61F20
:1009300006EB86071F2606FA07F18843D61F06EB4B
:10094000860605FA06F10843206310E0E06AA2F18A
:100950000D0606EB86071F2606FA07F18843A2F16B
:100960000D0606EB860605FA06F10843E062F0BDC7
:10097000816841F008018160704721B1826842F4CA
:10098000A002826003E0826822F4A00282607047C5
:10099000816841F0040181607047000000B587B0B4
:1009A00001214FF4017000F025FF1020ADF8180070
:1009B00000208DF81B0006A91A4800F018F94FF422
:1009C000004000F0FBFE1848FFF7FEFE00208DF807
:1009D000090004904FF46020039000200190012052
:1009E0008DF8140000208DF8080001A90E48FFF7CB
:1009F0003BFF01210C48FFF7DBFE0B48FFF7B8FF78
:100A000000BF0948FFF725FF0028FAD10648FFF785
:100A1000BFFF00BF0448FFF705FF0028FAD107B069
:100A200000BD0000000801400024014008B501217C
:100A3000042000F0DFFE10208DF803000001ADF867
:100A4000000003208DF802006946044800F0CFF84A
:100A50004FF48071014800F0A6F908BD000801407C
:100A600000BFFEE710B5002400F0A0F904E0601C10
:100A7000C4B2012002F0C2FA10210F4800F08AF936
:100A800008B9642CF3DB642C01DB002010BD0024CA
:100A900004E0601CC4B2012002F0B0FA1021064844
:100AA00000F078F908B1642CF3DB642C01DB002042
:100AB000ECE70120EAE70000000C014010B501213D
:100AC000082000F097FE102006490880C870032017
:100AD0008870054800F08BF800F070F8FFF7C2FF4F
:100AE00010BD000046000020000C014010B500249D
:100AF00004E0601CC4B2012002F080FA102110480A
:100B000000F048F908B1642CF3DB002404E0601C19
:100B1000C4B2012002F072FA1021094800F03AF93B
:100B200008B9642CF3DB1E2002F068FA1021044897
:100B300000F030F908B1012010BD0020FCE70000F2
:100B4000000C014070B50024002506E06006040E8C
:100B5000FFF7CCFF0443681CC5B2082DF6DB204626
:100B600070BD7CB505460E4600F028F8FFF77AFF09
:100B700001281FD1002405E0FFF7E4FF0DF8040071
:100B8000601CC4B2052CF7DB9DF800009DF8011035
:100B900008449DF8021008449DF8031008449DF88D
:100BA0000410884208D19DF8000030709DF80200C2
:100BB000287001E000207CBD0120FCE710B500F0AA
:100BC00001F91021084800F0EEF81E2002F0CEF9DD
:100BD0001021054800F002F91E2002F00FFA102142
:100BE000014800F0E0F810BD000C014070472DE90D
:100BF000F0410246002500260020002300240027A3
:100C000091F803C00CF00F0591F803C00CF0100C24
:100C1000BCF1000F03D091F802C04CEA050591F831
:100C200000C0BCF1000F31D0146800202BE04FF061
:100C3000010C0CFA00F3B1F800C00CEA03069E4266
:100C400020D183004FF00F0C0CFA03F7BC4305FAD8
:100C500003FC4CEA040491F803C0BCF1280F06D150
:100C60004FF0010C0CFA00FCC2F814C00AE091F835
:100C700003C0BCF1480F05D14FF0010C0CFA00FC89
:100C8000C2F810C0401C0828D1D31460B1F800C0CD
:100C9000BCF1FF0F34DD546800202EE000F1080C99
:100CA0004FF0010808FA0CF3B1F800C00CEA030693
:100CB0009E4221D183004FF00F0C0CFA03F7BC4386
:100CC00005FA03FC4CEA040491F803C0BCF1280FB8
:100CD00005D100F1080C08FA0CF8C2F8148091F85C
:100CE00003C0BCF1480F07D100F1080C4FF0010818
:100CF00008FA0CF8C2F81080401C0828CED35460C3
:100D0000BDE8F081F0B50A4600230024002100254B
:100D100000F00046B6F1004F02D11D4EF16901E02E
:100D20001B4E7168C0F3034583B200F44016B6F55C
:100D3000401F08D121F07061154E766826F070666C
:100D4000134F7E6012E000F48016B6F5801F06D1C6
:100D5000032606FA05F4A14341F0706106E0460D52
:100D6000360103FA06F6B14341F0706122B1460D37
:100D7000360103FA06F6314300F00046B6F1004FA3
:100D800002D1034EF16101E0014E7160F0BD00003F
:100D9000000001400246002093680B400BB1012087
:100DA00000E00020704741617047000010B504204A
:100DB0000249C8700248FFF71AFF10BD4600002024
:100DC000000C014010B510200249C8700248FFF71E
:100DD0000EFF10BD46000020000C0140016170476D
:100DE0000AB1016100E041617047000010B504469E
:100DF0000723012221460948FFF75EFD012107482C
:100E0000FFF7BBFD00BF02210448FFF719FD0028D2
:100E1000F9D00248FFF710FD10BD0000002401408A
:100E20002DE9F04180460C460025002608E04046AA
:100E3000FFF7DCFF0544012002F098F8701CC6B2F1
:100E4000A642F4DBB5FBF4F087B23846BDE8F0818A
:100E500000BFFEE710B500F035F800F0B9F8FFF775
:100E6000E5FD00F0ADFA00F06DF940F6B83000F0A5
:100E700053FE40F2CF2140F2CF7002F079F94FF4E7
:100E8000165000F049F801F03BFA01F027F8FFF79F
:100E900085FDFFF713FE10B901A001F00FFB10BD97
:100EA000204572726F722120542044485431312001
:100EB000484153204E4F20524553504F4E442E2E02
:100EC0002E0A000008B501210C2000F093FC14202C
:100ED0008DF803004FF41840ADF8000003208DF8A2
:100EE000020069460A48FFF782FE0820ADF80000BC
:100EF00069460848FFF77BFE01224FF41841044879
:100F0000FFF76EFF012208210248FFF769FF08BDC5
:100F100000080140000C014010B586B004460121D4
:100F2000042000F067FC0121880300F063FC00202E
:100F3000059018208DF817004FF40070ADF81400DC
:100F400003208DF8160005A91F48FFF750FE4FF447
:100F50008060ADF8140004208DF8170005A91A4828
:100F6000FFF745FE00200190029003900490019449
:100F7000ADF810000C20ADF80E000020ADF80C000C
:100F8000ADF80A00ADF8080001A9104801F080F89A
:100F9000012240F225510D4801F054F80020009044
:100FA00025208DF8000001208DF8030002208DF827
:100FB00001008DF80200684600F06EF80121034838
:100FC00000F0FDFF06B010BD0008014000380140F0
:100FD00008B50121042000F00DFC04208DF8030069
:100FE000C320ADF8000069460148FFF700FE08BDC8
:100FF0000018014010B5044634B1012C09D0022C70
:101000000CD0032C14D10EE080210A48FFF7C2FE59
:1010100010BD40210748FFF7BDFEF9E70221054852
:10102000FFF7B8FEF4E701210248FFF7B3FEEFE750
:101030000220EDE70008014070B505460C4635B1C9
:10104000012D0BD0022D10D0032D1BD114E0224610
:101050004FF400610C48FFF7C3FE13E022464FF443
:1010600080510948FFF7BCFE0CE022464FF40041D6
:101070000548FFF7B5FE05E0224608210348FFF7C3
:10108000AFFE00BF00BF70BD00080140000C014072
:1010900000BFFEE77047000070B5002100230F225B
:1010A000C47804B3154C246804F4E064C4F5E06427
:1010B000210AC1F10403CA40447804FA03F1847898
:1010C0001440214309010E4C0678A155047804F020
:1010D0001F050124AC4005786D11AD0005F1E02538
:1010E000C5F8004109E0047804F01F050124AC4074
:1010F000044D0678761145F8264070BD0CED00E0F1
:1011000000E400E080E100E002490143024A11608E
:10111000704700000000FA050CED00E010B5002853
:1011200007DA0A07140E054A00F00F031B1FD454F8
:1011300003E00A07130E024A135410BD18ED00E035
:1011400000E400E000200CE0002106E00022064B55
:1011500003EBC0135A544A1CD1B28029F6DB421C5F
:10116000D0B20828F0DB7047700000202DE9F04372
:1011700004460D4616461F467F2C01DDBDE8F08370
:101180003F2D00DDFAE7A119802902DDC4F18001BD
:10119000CEB2E919402902DDC5F14001CFB228469F
:1011A00030E0234629E04FEAE07C00EB5C7C4FEA2C
:1011B000EC0CDFF85C8008EBCC1C1CF803C002468A
:1011C0004FEAE07800EB58784FEAE808A0EBC8094E
:1011D0004FF0010808FA09F82CEA080C01464FEA1A
:1011E000E07800EB58784FEAE808DFF8249009EB44
:1011F000C81808F803C0591CCBB2A1199942D2DC17
:10120000411CC8B2E9198142CBDC00BFB6E700003F
:101210007000002070B503467F2B00DD70BD3F29B4
:1012200000DDFBE7CC1701EB5474E4100C4D05EB2B
:10123000C414E45C0A46CD1701EB5575ED10A1EB23
:10124000C5060125B5402C430846CD1701EB557561
:10125000ED10034E06EBC515EC5400BFDEE70000B1
:10126000700000202DE9F04705460E4617469846C7
:10127000DDF820A0BAF1000F24D12C460CE0314655
:101280002046FFF7C7FF06EB0800401EC1B220460C
:10129000FFF7C0FF601CC4B2E819A042EFDC34467F
:1012A0000BE021462846FFF7B5FFE919491EC8B2F1
:1012B0002146FFF7AFFF601CC4B206EB0800A04256
:1012C000EFDC14E02C460FE0B14607E0494620462B
:1012D000FFF7A0FF09F1010000F0FF0906EB08008D
:1012E0004845F3DC601CC4B2E819A042ECDCBDE860
:1012F000F087000038B5002406E0002500E06D1CF2
:10130000B5F57A7FFBD3641CB4F57A7FF5D3012160
:10131000082000F06FFA14208DF8030003208DF8E8
:1013200002004020ADF8000069460848FFF75FFC66
:101330008020ADF8000069460448FFF758FC012002
:1013400000F000FA012000F007FA38BD000C01405F
:1013500070B50546002411E080212141294009B1E2
:10136000012100E00021084600F0F6F9012000F01C
:10137000E9F9002000F0E6F9601CC4B2082CEBDBB0
:10138000012000F0DFF9002000F0DCF970BD10B59D
:10139000012000F0E1F9012000F0D4F9002000F074
:1013A000DBF9002000F0CEF910BD10B5002000F0F0
:1013B000D3F9012000F0C6F9012000F0CDF910BDED
:1013C00010B5FFF797FFAE2000F0D0F9D52000F060
:1013D000CDF9802000F0CAF9A82000F0C7F93F201D
:1013E00000F0C4F9D32000F0C1F9002000F0BEF9EC
:1013F000402000F0BBF9A12000F0B8F9C82000F0AF
:10140000B5F9DA2000F0B2F9122000F0AFF981202E
:1014100000F0ACF9CF2000F0A9F9D92000F0A6F92E
:10142000F12000F0A3F9DB2000F0A0F9302000F05B
:101430009DF9A42000F09AF9A62000F097F98D20DC
:1014400000F094F9142000F091F9AF2000F08EF92B
:1014500010BD10B50246012000E050430B1EA1F163
:101460000101FAD110BD70B505460C4645F0B0003B
:1014700000F07CF9102141EA141000F077F904F033
:101480000F0000F073F970BDF8B506460F4614461C
:101490001D46082D0CD1A4F120000E4901EB0010CF
:1014A0001023082239460090304600F063F80FE020
:1014B000062D0DD1A4F1200000EB4000064901EB00
:1014C00040000823062239460090304600F052F8CA
:1014D000F8BD000054380008443E00082DE9FC47E0
:1014E000804689461646002700200190002538E0F6
:1014F000705D01A9C855781CC7B2032F2FDB0027E8
:1015000000240BE004EBC401184A02EB810001A99E
:10151000FEF71AFE00B90BE0601CC4B204EBC40174
:10152000124A02EB810012A1FEF70EFE0028E9D15B
:1015300000BF681C032190FBF1F0401E08EB001077
:1015400000F0FF0A04EBC400084901EB8000001D15
:1015500010231A4649460090504600F00BF8681CCC
:10156000C5B2705D0028C3D1BDE8FC877E4000088D
:10157000000000002DE9F04707460C4690469946CA
:10158000DDF820A07F2F01DDBDE8F0873F2C00DDD6
:10159000FAE74B46424621463846FFF7E7FD00256D
:1015A00070E0002669E0B8197F2800DD67E0E117E8
:1015B00004EB517105EBE101072900DDE4E720466A
:1015C000E21704EB527205EBE202344B03EBC2125A
:1015D000BB19D25C2146E31704EB5373DB10A4EB79
:1015E000C30305FB086C1AF80CC00CFA03FC42EAB2
:1015F0000C02E31704EB537305EBE303DFF89CC025
:101600000CEBC31307EB060C03F80C20E11704EBFB
:10161000517105EBE101491C072900DD2BE0204653
:10162000E21704EB527205EBE202521C1B4B03EB78
:10163000C212BB19D25C2146E31704EB5373DB10D3
:10164000A4EBC303C3F1080305FB086C1AF80CC034
:101650004CFA03FC42EA0C02E31704EB537305EB6C
:10166000E3035B1CDFF834C00CEBC31307EB060C81
:1016700003F80C2000BF701CC6B2464593DB00BFC8
:10168000681CC5B2A9F10100C11700EB517101221C
:1016900002EBE101A94284DC00BF75E77000002085
:1016A0002DE9F0470646894617461D46DDF820809D
:1016B000002417E0281B411E0A20FFF7CAFEB7FBD3
:1016C000F0F00A21B0FBF1F201FB120000F1300A48
:1016D00004FB0861C8B2434652464946FFF7D4FEB0
:1016E000601CC4B2AC42E5DBBDE8F0872DE9F041F7
:1016F0000646884615461F46002409E02A5D04FB7D
:101700000761C8B23B464146FFF7BEFE601CC4B24B
:10171000285D0028F2D1BDE8F081000010B500245A
:101720000BE000212046FFF79EFE054901EBC410A7
:10173000802100F02BF8601CC4B2082CF1DB10BD36
:101740007000002010B50446224640210148FFF7F2
:1017500047FB10BD000C014010B504462246802115
:101760000148FFF73DFB10BD000C014010B50446D9
:10177000FFF70DFE7820FFF7EBFD0020FFF7E8FDF7
:101780002046FFF7E5FDFFF710FE10BD70B50546DA
:101790000E46FFF7FCFD7820FFF7DAFD4020FFF74B
:1017A000D7FD002404E0285DFFF7D2FD601CC4B221
:1017B000B442F8DBFFF7F9FD70BD70470146002029
:1017C000034A506820F440400843506070470000CE
:1017D0000010024029B1064AD2690243044BDA6183
:1017E00004E0034AD2698243014BDA61704700008A
:1017F0000010024029B1064A92690243044B9A61E3
:1018000004E0034A92698243014B9A6170470000E9
:101810000010024029B1064AD2680243044BDA6044
:1018200004E0034AD2688243014BDA60704700004B
:101830000010024030B500210022002400232D4D6D
:101840006D6805F00C0121B1042905D0082923D1C8
:1018500005E0294D056022E0274D05601FE0254D7C
:101860006D6805F47012234D6D6805F4803402250F
:1018700005EB92421CB9214D554305600BE01D4D0F
:101880006D6805F400351DB11C4D5543056002E03F
:10189000194D5543056002E0174D056000BF00BFBC
:1018A000144D6D6805F0F0010909154D6B5C056874
:1018B000DD4045600F4D6D6805F4E061090A104D8B
:1018C0006B5C4568DD4085600A4D6D6805F46051CC
:1018D000C90A0B4D6B5C4568DD40C560054D6D6800
:1018E00005F44041890B074D6B5CC568B5FBF3F50A
:1018F000056130BD0010024000127A0000093D0071
:10190000140000202400002021B1028842F040028F
:10191000028004E002884FF6BF731A4002807047CD
:1019200010B50022028802F441520B884C882343F0
:101930008C882343CC8823430C8923434C8923433D
:101940008C892343CC8923431A430280838B4FF233
:10195000FF74234083830B8A038210BD704710B548
:1019600000F002F810BD00000CB5002001900090BE
:101970003348006840F480303149086000BF304887
:10198000006800F4003000900198401C019000981D
:1019900018B90198B0F5A06FF1D12948006800F49A
:1019A000003010B10120009001E00020009000986C
:1019B000012843D12348006840F010002149086005
:1019C0000846006820F0030008600846006840F000
:1019D000020008601A484068194948600846406893
:1019E00048600846406840F48060486008464068A7
:1019F00020F47C1048600846406840F4E8104860D5
:101A00000846006840F08070086000BF0C4800681D
:101A100000F000700028F9D00948406820F0030069
:101A2000074948600846406840F00200486000BF2F
:101A30000348406800F00C000828F9D10CBD0000F4
:101A400000100240002002400A4801680068401C63
:101A5000084A10600848814202D3002011460860FD
:101A60000648008820B105480088401E03490880C8
:101A7000704700006800002020A1070064000020DB
:101A800010B51348006840F001001149086008468D
:101A90004068104908400E494860084600680E49F1
:101AA00008400B4908600846006820F48020086060
:101AB0000846406820F4FE0048604FF41F0088602C
:101AC000FFF74DFF4FF000600449086010BD0000B3
:101AD000001002400000FFF8FFFFF6FE08ED00E0F6
:101AE0000B48008800F0010080B10948008820F010
:101AF0000100074908800120064908700448103891
:101B0000008820F001000249103908807047000069
:101B1000100400404A00002030B5024600202C4945
:101B200008702C48C06940F002002A49C861084684
:101B3000806940F0080088612748006820F0300084
:101B4000254908600846006840F020000860084603
:101B5000006820F0C00008600846006840F080007F
:101B6000086041F61F401D490880501E091D08806D
:101B700000201A49091F088018481C38008840F0C6
:101B8000010016491C39088014482838008840F0A4
:101B900001001249283908801D2001218140430994
:101BA0009B0003F1E023C3F8001100BF05210028CA
:101BB00007DA0B071D0E0A4B00F00F04241F1D55FA
:101BC00003E00B071C0E074B1C5400BF30BD000088
:101BD0004A00002000100240000C01402804004090
:101BE00018ED00E000E400E021B1028842F00102BB
:101BF000028004E002884FF6FE731A4002807047AC
:101C000070B5002400220023058C4FF6FF66354096
:101C10000584028C8388848B4FF68F752C404FF699
:101C2000FC752C400D882C434FF6FF552A400D893A
:101C30004FF6FF7606EA05252A434D8806EA052574
:101C40002A43154DA84202D0144DA8421DD14FF28F
:101C5000FF752A404D894FF6FF7606EA05252A438F
:101C60004FF6FF352A408D8806EA05252A434EF6B1
:101C7000FF752B404DF6FF752B408D8906EA051543
:101C80002B43CD8906EA05152B4383808483CD88B9
:101C90008587028470BD0000002C014000340140A3
:101CA0000A460021818B4FF6F77319401143818357
:101CB0007047000070B5002200230024058C4EF60A
:101CC000FF7635400584038C8488828B48F6FF7547
:101CD0002A404FF6FF452A400D884FF6FF7606EA68
:101CE00005252A434DF6FF752B400D8906EA05357B
:101CF0002B434D8806EA05352B430B4DA84202D0F5
:101D00000A4DA84208D14BF6FF752C408D894FF63D
:101D1000FF7606EA85152C4384808283CD88A0F85F
:101D20004050038470BD0000002C0140003401408D
:101D30000A460021818B4FF2FF7319404FF6FF7363
:101D400003EA022319438183704781877047A0F813
:101D500040107047002202881D4B98420ED01D4B48
:101D600098420BD0B0F1804F08D01B4B984205D061
:101D70001A4B984202D01A4B984204D14FF68F73F7
:101D80001A404B881A43174B984207D0164B98427B
:101D900004D04FF6FF431A40CB881A4302808B8849
:101DA00083850B8803850A4B98420BD0094B9842D8
:101DB00008D00E4B984205D00D4B984202D00D4BE7
:101DC000984201D10B7A0386012383827047000079
:101DD000002C014000340140000400400008004095
:101DE000000C004000100040001400400040014082
:101DF000004401400048014010B540F2255114480C
:101E000000F0F6F8012822D1114800F0ADF9C4B273
:101E1000104800787F2807DA0E4801780078401CC7
:101E20000C4A10700C484454302C0AD100210A4846
:101E3000084A127881540020064908700120074999
:101E4000087040F22551024800F0AAF800BF10BD0A
:101E500000380140280000207004002029000020E4
:101E600001480078704700002D00002005480078E8
:101E7000012804D100200349087001207047002088
:101E8000FCE700002E00002010B540F225510F485D
:101E900000F0AEF8C8B140F225510C4800F080F8CF
:101EA0000A4800F061F90A490870012009490870E0
:101EB0000748007801F0E2F807480078012804D1CB
:101EC00000200549087001F00BF910BD00440040E6
:101ED0002D0000202E0000202C00002000B587B02F
:101EE00001214804FFF776FC01210420FFF782FC62
:101EF0000420ADF8180018208DF81B0003208DF881
:101F00001A0006A91C48FEF772FE0820ADF818005A
:101F100048208DF81B0006A91748FEF768FE4FF40D
:101F2000165002900020ADF814000C20ADF81200FD
:101F30000020ADF81000ADF80E00ADF80C0002A9BD
:101F40000E4800F0A5F8012240F225510B4800F0A0
:101F500079F826208DF8040001208DF807008DF80F
:101F600005008DF8060001A8FFF796F80121034847
:101F700000F025F807B000BD000801400044004013
:101F800010B504462146054800F0F3F800BF802153
:101F9000024800F020F80028F9D010BD00440040AD
:101FA00010B50022002340F66A14A14200D100BF00
:101FB0000A1201249440A3B2DC43048010BD21B175
:101FC000828942F40052828104E082894DF6FF73D7
:101FD0001A408281704702460020B1F5007F00D18F
:101FE00000BF13880B400BB1012000E000207047B8
:101FF00070B50246002400230025002040F66A1632
:10200000B14200D100BFC1F3421501F01F03012608
:1020100006FA03F3012D02D19689334006E0022D22
:1020200002D1168A334001E0968A33400C12012611
:1020300006FA04F41688344013B10CB1012000E014
:10204000002070BDF0B503460024002600250020C6
:1020500040F66A17B94200D100BF1846C1F34214D6
:1020600001F01F06012707FA06F5012C01D10C30FB
:1020700004E0022C01D1103000E014301AB10768DE
:102080002F43076002E00768AF430760F0BD000020
:102090002DE9F04786B005460E460024A24600BF53
:1020A000A1460027B08900B100BF2F462C8A4CF60C
:1020B000FF700440F08804432C82AC894EF6F31084
:1020C0000440B08831890843718908430443AC81D6
:1020D000AC8A4FF6FF400440B0890443AC8201A8AB
:1020E000FFF7A8FB1F48874202D1DDF810A001E0EE
:1020F000DDF80CA0A88900F4004040B10AEBCA004A
:1021000000EB0A1031684900B0FBF1F807E00AEB78
:10211000CA0000EB0A1031688900B0FBF1F86420B6
:10212000B8FBF0F004012009642101FB1089A889A3
:1021300000F4004040B1322000EBC900B0FBF1F0E8
:1021400000F00700044308E0322000EB091064218E
:10215000B0FBF1F000F00F0004432C8106B0BDE8A5
:10216000F08700000038014001468888C0F308006D
:102170007047C1F308028280704700BFFEE700008D
:1021800010B5044600F088F94FF480510C48FEF772
:102190000AFE202000F00EF9C4F3074000F00AF90F
:1021A000C4F3072000F006F9E0B200F003F94FF4A1
:1021B00080510348FEF712FE00F0F2F810BD000057
:1021C000000C014010B54FF480510848FEF7EBFDBC
:1021D000052000F0EFF800F041F804464FF480517C
:1021E0000248FEF7FBFD204610BD0000000C014038
:1021F0002DE9F04104460F461646E0B2C0F580785E
:10220000464501DA304600E0404686B200F044F927
:102210004FF480511048FEF7C6FD022000F0CAF8C6
:10222000C4F3074000F0C6F8C4F3072000F0C2F87A
:10223000E0B200F0BFF8002503E0785D00F0BAF8E6
:102240006D1CB542F9DB4FF480510348FEF7C6FD23
:1022500000F0A6F8BDE8F081000C014000BF0B497A
:10226000098801F002010029F9D0FF21074A121D57
:10227000118000BF0549098801F001010029F9D04A
:102280000249091D0988C8B270470000083800409B
:102290002DE9F04104460E46154615B90020BDE86B
:1022A000F081C4F18077BD4201D2284600E0384673
:1022B0000546A8464FF480511048FEF774FD0320F0
:1022C00000F078F8C4F3074000F074F8C4F3072076
:1022D00000F070F8E0B200F06DF803E0FFF7BEFF29
:1022E00006F8010B281EA5F10105F7D14FF4805126
:1022F0000248FEF773FD4046D1E70000000C0140A4
:1023000000B587B001210820FFF774FA002006907D
:1023100018208DF81B004FF46040ADF81800032022
:102320008DF81A0006A91C48FEF761FC10208DF8F4
:102330001B000002ADF8180006A91748FEF757FC6D
:1023400001218803FFF746FA142101A8FDF7F1FEE9
:102350000820ADF810000020ADF80C00ADF80A0020
:102360000720ADF814000020ADF80800ADF8040017
:10237000ADF812004FF48270ADF806004FF4007013
:10238000ADF80E0001A90548FFF7CAFA012103487C
:10239000FFF7BAFA07B000BD000C0140003800405A
:1023A00010B500BFFFF70EFF00F001000028F9D1C3
:1023B00010BD000000BF0A49098801F00201002990
:1023C000F9D00749091D088000BF0549098801F0B7
:1023D00001010029F9D00249091D09887047000050
:1023E000083800402DE9F74F82B006469046C6F106
:1023F000807001900198804501D2404600E001982C
:10240000804600274FEA16394FEA093906EB0800E3
:102410004FEA103A4FEA0A3A4C4634E04C4501D0B4
:10242000544505D14FF480521A492046FFF730FF3A
:102430004C4503D1C6F30B00009002E0C4F30B003F
:102440000090009D05E00398C05D124948556D1C41
:102450007F1CB5F5805F01DA4745F4D32046FFF7CE
:102460008FFEA34600250AE00A4800EB05214FF441
:1024700080725846FFF7BCFE6D1C0BF5807B102D5B
:10248000F2DB04F580545445C8D9384605B0BDE8A0
:10249000F08F0000F004002010B54FF48051064882
:1024A000FEF781FC0620FFF785FF4FF480510248BC
:1024B000FEF794FC10BD0000000C01400FB4054B6A
:1024C00010B503A9044A029800F0DEF810BC5DF8CC
:1024D00014FB0000593000086C0000200FB4084BBA
:1024E00010B504A902AA039800F0CEF8044602A988
:1024F000002000F060FC204610BC5DF814FB0000DA
:10250000B72D000802E008C8121F08C1002AFAD13E
:1025100070477047002001E001C1121F002AFBD163
:10252000704700002DE9FF5FDDE90220010DDDF8B5
:1025300038B0024318D044F61050A1F2FF314143A5
:102540000D140F98012820D0A5EB0B00401C5FEA6A
:10255000000A4FF00004474EDFF81C91A046504699
:1025600016D5CAF1000728E00F98012443A20128DC
:1025700008D0002100980F9BC0E90021C0E9024368
:10258000BDE8FF9F6FEA0B01F4E7CBF10000DEE747
:10259000074612E0F80707D0224633464046494630
:1025A000FDF787FE80468946224633461046194687
:1025B000FDF77FFE04460E467F10002FEAD1DDE9CD
:1025C0000201BAF1000F42464B4602DAFDF771FEF6
:1025D00001E0FDF7E0FE04460E460022284BFDF721
:1025E00073FF03D84FF0FF30014607E00022254B70
:1025F00020463146FDF7B6FDFEF7B0F8102409E09D
:10260000002C0ADB0A220023FDF7B2FF019B3032C7
:102610001A55641E50EA0102F2D1641C019AC4F1F9
:10262000110314440F9A012A03D0012208430DD14B
:102630000AE0084304D000204FF0110B0F9080E710
:10264000A3EB0B056D1E0DE05B4504DD4FF00002B2
:1026500005F1010504E003DA4FF00002A5F10105E0
:10266000002AECD000980F99C0E90231C0E900457A
:1026700086E70000000024400000F03F300000002A
:102680000000F0430000E03F2DE9FF4F95B09B466E
:102690008946064600250FE2252877D100242746E3
:1026A000F84A0121059400E0044316F8013F203B5D
:1026B00001FA03F01042F7D130782A2811D06FF0D8
:1026C0002F033078A0F13002092A16D8059A44F079
:1026D000020402EB820203EB42021044761C0590D6
:1026E000EFE759F8042B0592002A03DA504244F42C
:1026F0000054059044F00204761C30782E2816D140
:1027000016F8010F44F004042A280DD06FF02F02B0
:102710003078A0F13003092B09D807EB870302EBCF
:102720004303C718761CF3E759F8047B761C30780E
:102730006C280FD006DC4C2817D068280DD06A28EA
:1027400014D104E0742810D07A280FD10DE044F49D
:1027500000140AE044F4801401E044F44014727858
:10276000824202D104F58014761C761C30786628EB
:102770000BD013DC582877D009DC002875D0452809
:10278000F6D04628F4D047281AD19DE118E06328F6
:1027900035D0642879D0652812D195E1702873D09E
:1027A00008DC6728F1D069286FD06E280DD06F281B
:1027B00006D1B5E073282CD0752875D0782874D050
:1027C0005A46179990476D1C75E1C4F302500228D0
:1027D00009D003280DD0D9F8001004280DD00D60C1
:1027E00009F1040967E1D9F80010EA17C1E90052BC
:1027F000F6E7D9F800100D80F2E70D70F0E719F850
:10280000041B8DF8001000208DF80100EA4601201D
:1028100003E059F804AB4FF0FF3061074FF00001BF
:1028200002D40DE008F101018846B9420FDA804573
:10283000F8DB1AF808100029F4D108E008F10101CA
:1028400088468142FADB1AF808100029F6D105986B
:102850005B46A0EB080721463846179A00F094FA29
:10286000284400EB080507E04DE029E10DE01AF8E7
:10287000010B5A4617999047B8F10108F7D25B4609
:1028800021463846179A13E142E00A220092C4F327
:1028900002524FF0000A022A08D059F804CB032A4A
:1028A0004FEAEC710AD00DE029E02AE009F10701B6
:1028B00021F00702F2E802C1914609E00FFA8CFC10
:1028C0004FEAEC71042A03D14FFA8CFC4FEAEC7109
:1028D000002907DA0A460021DCF1000C61EB020155
:1028E0002D2202E0220504D52B228DF8042001229E
:1028F00003E0E20701D02022F7E7904659E00A21E1
:1029000002E010220DE010214FF0000A00910BE0D0
:1029100010224FF0000A44F004040827009203E05C
:1029200008224FF0000A0092C4F30252022A05D096
:1029300059F804CB0021032A08D009E009F1070166
:1029400021F00702F2E802C1914605E01FFA8CFC73
:10295000042A01D10CF0FF0C4FF00008220728D503
:10296000702806D0009B83F0100353EA0A0305D0B9
:102970000EE040228DF80420012208E05CEA01020A
:1029800006D030228DF804208DF8050002229046F2
:10299000009B83F0080353EA0A030AD15CEA0102B0
:1029A00001D1620705D530228DF804204FF00108CF
:1029B0007F1E582804D034A003900EA802900DE08A
:1029C00036A0F9E753466046009AFDF7D1FD8446EC
:1029D0000398825C0298401E029002705CEA01003B
:1029E000F0D1029806A9081A00F1200A600702D562
:1029F00024F4803400E00127574502DDA7EB0A00EC
:102A000000E0002000EB0A01009005984144401AC4
:102A10000590E00306D45B462146179A059800F01E
:102A2000B3F90544002706E001A85A46C05D17998E
:102A300090476D1C7F1C4745F6DBE0030CD55B46D9
:102A40002146179A059800F09FF9054404E03020CC
:102A50005A46179990476D1C0099481E009000290E
:102A6000F5DC08E0029802995A460078491C029168
:102A7000179990476D1CBAF10001AAF1010AF1DC27
:102A800065E1000009280100303132333435363732
:102A900038396162636465660000000030313233AA
:102AA000343536373839414243444546000000004A
:102AB00000F058F90544761C307800287FF4ECAD1E
:102AC00019B02846BDE8F08F620700D4062709F147
:102AD000070222F0070CFCE80223E14603F000485D
:102AE0005FEA080C02D00FF2702C0DE05FEA045C84
:102AF00002D50FF2682C07E05FEAC47C02D00FF227
:102B0000602C01E0AFF2700C4FF0FF3823F000436F
:102B1000CDF850C065280CD006DC452809D04628E1
:102B20001DD047283DD13DE0662818D067287ED1CA
:102B300038E00021112F01DB112000E0781CCDE9E5
:102B4000000106A90EA8FFF7EDFCDDE90F010E9AC2
:102B500003910021009207F1010A04914DE04FF02A
:102B600000400097CDE9011006A90EA8FFF7DAFC96
:102B7000DDE90F0203920E9B11990022DDF80CA0F3
:102B80000093049211B9791C00EB010AB7EB0A001B
:102B900004D4C0F1FF3007F1010A0490AAEB07004A
:102BA000019044E0012F00DA01270021112F01DDFF
:102BB000112000E03846CDE9000106A90EA8FFF774
:102BC000B1FCDDE90F010E9A0391002104910092FE
:102BD000BA4621070CD40399514500DA8A46BAF166
:102BE000010F05DD009AAAF10101515C302908D0DE
:102BF000B84202DA10F1040F06DA0121CDE9011022
:102C000015E0AAF10101E9E7002805DC0499014477
:102C10000491AAEB000102E0411C514500DD8A4607
:102C20000499401A401C01904FF000400290200788
:102C300004D40198504501DBCDF8048000208DF8C4
:102C40004F0002980DF14F07B0F1004F25D02B2017
:102C50000E9002984FF0020800280CDA40420290D1
:102C60002D200E9007E00A210298FDF76BFC303111
:102C7000029007F8011DB8F10001A8F10108F2DC8B
:102C800002980028EFD1791E0E980870307800F075
:102C9000200040F0450007F8020D12A8C01B00F10B
:102CA00007081498007800B1012000EB0A01019890
:102CB00001EBE07105984144401A401E0590E00385
:102CC00006D45B462146179A059800F05DF8054446
:102CD0001498007818B15A46179990476D1CE00374
:102CE00024D55B462146179A059800F04DF8054417
:102CF0001CE00498002807DBDDE90301884203DDBE
:102D00000098405C179901E0179930205A46904787
:102D1000049805F10105401C04900198401E0190A3
:102D200004D12E205A46179990476D1CBAF1000124
:102D3000AAF1010ADDDC05E017F8010B5A461799E4
:102D400090476D1CB8F10001A8F10108F4DC5B4666
:102D50002146179A0598ABE62D0000002B000000D5
:102D6000200000002DE9F041044600251E461746CC
:102D7000880404D405E039462020B0476D1C641E49
:102D8000F9D52846BDE8F0812DE9F041044600253B
:102D90001E469046C80301D5302700E0202788044E
:102DA00004D505E041463846B0476D1C641EF9D590
:102DB0002846BDE8F0810A68531C0B60107070470C
:102DC00038B53D237D2201210846FEF7CFF959A2EF
:102DD00014211820FEF782FB102259495948006837
:102DE000FFF756FA5648007838B93220564908702D
:102DF000102254480068FFF7F5FA10225049514854
:102E00000068FFF745FA4E4804780820022322465E
:102E1000142100904B20FEF743FCFEF77FFC85E079
:102E20000320FEF7E7F8002837D10F2000F09EF8C6
:102E30000320FEF7DFF880BB43480078401C42497E
:102E4000087010223F480068FFF7CCFA10223C4976
:102E50003C480068FFF71CFA3948047810231A46EA
:102E600014214B20FEF782F9082002232246142168
:102E700000904B20FEF714FCFEF750FC00BF022030
:102E8000FEF7B8F80128FAD10F2000F06FF800BF64
:102E90000220FEF7AFF80128FAD10220FEF7AAF8C7
:102EA000002837D10F2000F061F80220FEF7A2F8C9
:102EB00080BB25480078401E234908701022214815
:102EC0000068FFF78FFA10221D491E480068FFF7BF
:102ED000DFF91B48047810231A4614214B20FEF713
:102EE00045F9082002232246142100904B20FEF7CA
:102EF000D7FBFEF713FC00BF0320FEF77BF8012889
:102F0000FAD10F2000F032F800BF0320FEF772F86C
:102F10000128FAD10120FEF76DF838B90F2000F032
:102F200025F80120FEF766F800B900E078E700BF59
:102F300038BD0000E7839FE99BBEE580BC00000030
:102F40000A1500204C0000201A15002010B532216F
:102F50000148FEF7FCFE10BD0008004010B532210C
:102F60000148FEF7F2FE10BD00080040F0B5014632
:102F70004FF4FA7491FBF4F5AAB291FBF4F504FB5B
:102F80001515ABB20BB1551C00E01546AAB20020D6
:102F90002EE0561E864201D103B11C46164E3668FD
:102FA000F6084FF47A77B6FBF7F66643761E4FF0D5
:102FB000E0277E610026BE613E46366946F0010686
:102FC0003E6100BF4FF0E026356905F001061EB1F5
:102FD00005F48036002EF5D04FF0E026366926F055
:102FE00001064FF0E0273E610026BE61451CA8B2F5
:102FF0009042CEDBF0BD0000000000200146144AE4
:103000001268D208134BB2FBF3F24A43521E4FF040
:10301000E0235A6100229A611A46126942F00102C5
:103020001A6100BF4FF0E022106900F001021AB1EE
:1030300000F48032002AF5D04FF0E022126922F02D
:1030400001024FF0E0231A6100229A6170470000EC
:103050000000002040420F0070B504460D46E1B26A
:103060000548FFF786F800BF80210348FEF7B3FF4D
:103070000128F9D1002070BD0038014015490A78B7
:103080000978491C134B197013498854194609785B
:10309000012909D110490978A52905D000211A462E
:1030A000117002210D4A11700A4909780C290FD1BB
:1030B00001210A4A11700849C97A5A2902D101210D
:1030C000117002E00321054A11700021014A1170BC
:1030D0007047000044000020FE1400202C00002057
:1030E0001248407812490860104880780F49C97822
:1030F00040EA01200F4908600C4800790B494979E2
:1031000040EA01200C490860084880790749C979DC
:1031100040EA0120094908600448007A0349497AD5
:1031200040EA01200649086070470000FE140020B4
:103130003000002034000020380000203C00002037
:103140004000002001218920FEF754FB012107489F
:10315000FDF7D8FD4FF4A060FDF7D6FF0021481E13
:10316000FDF7DCFFFDF776FE00F0D0FA000230003C
:1031700030B589B005460C4601210420FEF72AFB34
:1031800001210820FEF736FB4FF44070ADF8200017
:1031900018208DF8230003208DF8220008A9174875
:1031A000FDF725FDADF81850ADF814400020ADF83E
:1031B0001A00ADF8160005A91148FEF7CBFD6020F6
:1031C000ADF804000120ADF806000020ADF80C00B9
:1031D00001A90B48FEF714FD01A90948FEF76AFD95
:1031E00008210748FEF75CFD08210548FEF7A0FD11
:1031F00001210348FEF7F8FC09B030BD000C014086
:103200000008004010B5FA210148FEF7A0FD10BDEE
:103210000008004010B5FA210148FEF796FD10BDE8
:103220000008004090B000200A9009901022EC495C
:10323000EC480068FFF72CF8E94800780290CEE1EE
:103240000A210420FDF7ECFD08900898FDF71BF912
:103250000646E54AE54BFDF72CF8E54AE54BCDE996
:103260000001FDF798F804460022E34BFDF721F832
:103270008046FDF741F98346FEF7F8FD0128DED1CF
:10328000FEF7EEFD8246AAF161000E2878D2DFE853
:1032900000F007192B3B5167788898DEFEFDFCFB98
:1032A00000210846FDF7C8FE3D237D220121084686
:1032B000FDF75CFFD1A210210846FEF70FF9FEF7DB
:1032C0002DFA88E101210020FDF7B6FE3D237D2285
:1032D00001210846FDF74AFFCCA210210846FEF75F
:1032E000FDF8FEF71BFA76E1FFF78CFF3D237D2208
:1032F00001210846FDF73AFFC8A210210846FEF753
:10330000EDF8FEF70BFA66E100210120FDF794FECF
:1033100000210220FDF790FE3D237D220121084679
:10332000FDF724FFB5A210210846FEF7D7F8FEF7F7
:10333000F5F950E101210846FDF77EFE012102204A
:10334000FDF77AFE3D237D2201210846FDF70EFFA1
:10335000AEA210210846FEF7C1F8FEF7DFF93AE108
:10336000FFF7F4FD3D237D2201210846FDF7FEFE17
:10337000AEA210210846FEF7B1F8FEF7CFF92AE118
:1033800028E1FFF747FF3D237D2201210846FDF795
:10339000EDFEAAA210210846FEF7A0F8FEF7BEF93E
:1033A00019E1FFF7DBFD3D237D2201210846FDF7F2
:1033B000DDFEA6A210210846FEF790F8FEF7AEF952
:1033C00009E109A90AA8FDF7CCFB00283BD09DF82C
:1033D00028001E2803DDFFF715FFFFF71BFF9DF8F0
:1033E00024209DF828109DA0FFF768F83D237D223A
:1033F00001210846FDF7BAFE9EA20A211420FEF71D
:103400006DF89EA21B211420FEF768F89DF8282075
:103410009CA10BA8FFF762F808230BAA0A2136200B
:10342000FEF764F9FEF77AF99DF8242095A10BA820
:10343000FFF754F808230BAA1B213620FEF756F994
:10344000FEF76CF902E091A0FFF738F8C3E05846A8
:10345000FDF726F8044622460B4696A0FFF72EF805
:103460000298FDF707F804465946FDF761F81DD2AA
:103470004FF480719548FDF7B1FC00210846FDF737
:10348000DBFD0021012003E086E067E053E02BE054
:10349000FDF7D2FD00210220FDF7CEFD0021032023
:1034A000FDF7CAFDFFF7AEFEFFF7B4FE3D237D2218
:1034B00001210846FDF75AFE85A210210220FEF7E1
:1034C0000DF85846FCF7ECFF044622460B4682A155
:1034D00003A8FFF703F8082303AA10212220FEF710
:1034E00005F9FEF71BF976E04FF480717748FDF798
:1034F00075FC00210846FDF79FFD00210120FDF726
:103500009BFD00210220FDF797FD00210320FDF720
:1035100093FDFFF777FEFFF77DFE3D237D2201211E
:103520000846FDF723FE6FA210210520FDF7D6FF08
:10353000FEF7F4F84FE04FF480716448FDF733FC78
:103540003D237D2201210846FDF710FE6BA21021CC
:103550000846FDF7C3FFFEF7E1F83CE0002108460E
:10356000FDF76AFD00210120FDF766FD0021022024
:10357000FDF762FD00210320FDF75EFD3D237D2266
:1035800001210846FDF7F2FD1CA210210846FDF7B7
:10359000A5FFFEF7C3F81EE001210020FDF74CFD5A
:1035A00001210846FDF748FD01210220FDF744FDF9
:1035B00001210320FDF740FD3D237D220121084626
:1035C000FDF7D4FD11A210210846FDF787FFFEF795
:1035D000A5F800E000BF00BF5046FEF7D1FC2FE683
:1035E0000A1500204C000020F564FED137694A3FDF
:1035F00071A57B03CAC4E53F00003440E781AFE515
:10360000B7B2E68993E5BC8000000000E781AFE532
:10361000B7B2E585B3E997AD00000000E997A8E5EA
:10362000B7B2E68993E5BC8000000000E997A8E501
:10363000B7B2E585B3E997AD00000000E7AA97E5CA
:10364000B7B2E68993E5BC8000000000E7AA97E5E1
:10365000B7B2E585B3E997AD000000000D0A20740C
:10366000656D703A2025642C2068756D693A2025B7
:1036700064000000E6B8A9E5BAA60000E6B9BFE517
:10368000BAA600003A202564000000000D0A20457B
:1036900052524F5221205448452044485431312041
:1036A000484153204E4F20524553504F4E442E2EEA
:1036B0002E000000536D6F6B652056616C75653A86
:1036C00020252E32662070706D0A0000000801402F
:1036D000E7839FE99BBE00003A20252E326670707A
:1036E0006D000000E5B7B2E68AA5E8ADA6EFBC8C98
:1036F000E5BFABE692A4E7A6BB000000E8ADA6E6F6
:103700008AA5E5B7B2E8A7A3E999A4008AB0FDF7B6
:1037100019FD434AD2E901311068D268CDE9073179
:10372000099206903E4B1033D3E90020D3E90213EF
:10373000CDE90413CDE902203AA200211F20FDF7B4
:10374000CDFE082306AA14211820FDF7CFFF082379
:1037500002AA28211820FDF7C9FF36A2142125202E
:10376000FDF7BCFE37A228212520FDF7B7FE00207B
:103770003F237F2201460090FDF774FDFDF7CEFF49
:103780004CE028A200211F20FDF7A8FE082306AA6E
:1037900014211820FDF7AAFF082302AA28211820C7
:1037A000FDF7A4FF23A214212520FDF797FE25A2F3
:1037B00028212520FDF792FE00203F237F2201468D
:1037C0000090FDF74FFDFDF7A9FF0220FDF712FC69
:1037D00040B90F20FFF7CAFB0220FDF70BFC08B928
:1037E000FFF720FD0320FDF705FCB8B90F20FFF718
:1037F000BDFB0320FDF7FEFB80B9FFF7E1FA00BF38
:103800000320FDF7F7FB0128FAD10F20FFF7AEFBED
:1038100000BF0320FDF7EEFB0128FAD1B1E700005D
:1038200040460008E5AE89E585A8E7AEA1E5AEB65D
:1038300000000000E5BC80E5A78BE5B7A5E4BD9CD2
:1038400000000000E8B083E88A82E99888E580BC3F
:103850000000000000000000000000000000000068
:1038600000000000000000F800000000000000332D
:103870003000000000160E00160E000000000000D0
:103880000000000040C07840C0784000043F0404BD
:103890003F040400007088FC08300000001820FF7E
:1038A000211E0000F008F000E018000000211C03B9
:1038B0001E211E0000F00888700000001E21232435
:1038C00019272110000000160E0000000000000063
:1038D00000000000000000E01804020000000007E3
:1038E0001820400000020418E000000000402018EA
:1038F00007000000404080F0804040000202010FBD
:1039000001020200000000F0000000000101011FA0
:1039100001010100000000000000000000B0700084
:103920000000000000000000000000000001010194
:103930000101010100000000000000000030300023
:1039400000000000000000008060180400601806FD
:103950000100000000E010080810E000000F102037
:1039600020100F00001010F8000000000020203F81
:10397000202000000070080808887000003028240B
:1039800022213000003008888848300000182020AC
:1039900020110E000000C02010F8000000070424D1
:1039A000243F240000F80888880808000019212016
:1039B00020110E0000E0108888180000000F112070
:1039C00020110E0000380808C83808000000003F29
:1039D000000000000070880808887000001C222188
:1039E00021221C0000E010080810E0000000312235
:1039F00022110F00000000C0C000000000000030D5
:103A000030000000000000C0C0000000000080B0D6
:103A10007000000000008040201008000001020437
:103A2000081020004040404040404000040404048E
:103A3000040404000008102040800000002010084A
:103A400004020100007048080808F000000000307F
:103A500036010000C030C828E810E000071827240D
:103A600023140B000000C038E0000000203C2302BB
:103A70000227382008F8888888700000203F20201E
:103A800020110E00C0300808080838000718202050
:103A90002010080008F808080810E000203F202047
:103AA00020100F0008F88888E8081000203F202028
:103AB0002320180008F88888E8081000203F20001C
:103AC00003000000C0300808083800000718202054
:103AD000221E020008F808000008F808203F210113
:103AE00001213F20000808F8080800000020203FBE
:103AF0002020000000000808F8080800C08080802E
:103B00007F00000008F888C028180800203F200126
:103B10002638200008F8080000000000203F202080
:103B20002020300008F8F800F8F80800203F003F97
:103B3000003F200008F830C00008F808203F2000AF
:103B400007183F00E01008080810E0000F102020C0
:103B500020100F0008F808080808F000203F210195
:103B600001010000E01008080810E0000F182424EC
:103B700038504F0008F8888888887000203F20005F
:103B8000030C302000708808080838000038202115
:103B900021221C00180808F8080818000000203F1F
:103BA0002000000008F808000008F808001F202086
:103BB00020201F000878880000C838080000073857
:103BC0000E010000F80800F80008F800033C0700A8
:103BD000073C0300081868808068180820302C0310
:103BE000032C30200838C800C83808000000203FE7
:103BF0002000000010080808C838080020382621D6
:103C000020201800000000FE020202000000007FD9
:103C100040404000000C30C00000000000000001E7
:103C20000638C00000020202FE00000000404040D2
:103C30007F00000000201008040810200000000091
:103C40000000000000000000000000008080808074
:103C50008080808000020408000000000000000056
:103C600000000000000080808080000000192422F5
:103C700022223F2008F8008080000000003F112031
:103C800020110E000000008080800000000E112036
:103C900020201100000000808088F800000E112014
:103CA00020103F200000808080800000001F222222
:103CB00022221300008080F0888888180020203F8E
:103CC000202000000000808080808000006B9494A1
:103CD0009493600008F8008080800000203F21005D
:103CE00000203F2000809898000000000020203F26
:103CF00020200000000000809898000000C0808014
:103D0000807F000008F8000080808000203F2402AF
:103D10002D302000000808F8000000000020203F9F
:103D2000202000008080808080808000203F200054
:103D30003F20003F008080008080000000203F2165
:103D400000203F200000808080800000001F202095
:103D500020201F00808000808000000080FFA120C4
:103D600020110E000000008080808000000E1120D5
:103D700020A0FF80808080008080800020203F2164
:103D80002000010000008080808080000033242417
:103D900024241900008080E0808000000000001FC3
:103DA000202000008080000000808000001F202074
:103DB00020103F20808080000080808000010E3035
:103DC0000806010080800080008080800F300C0396
:103DD0000C300F0000808000808080000020312E99
:103DE0000E312000808080000080808080818E7075
:103DF0001806010000808080808080000021302C27
:103E00002221300000000000807C0202000000003F
:103E1000003F404000000000FF00000000000000E4
:103E2000FF0000000002027C800000000040403FD4
:103E30000000000000804040800000800000000082
:103E4000000101000000000000000000002F000041
:103E500000000700070000147F147F1400242A7F4D
:103E60002A120023130864620036495522500000CC
:103E70000007000000001C224100000041221C003D
:103E80000014083E08140008083E0808000000A0BE
:103E900060000008080808080000606000000020BA
:103EA00010080402003E5149453E0000427F400098
:103EB000004261514946002141454B31001814121E
:103EC0007F10002745454539003C4A4949300001EB
:103ED0007109050300364949493600064949291E3A
:103EE000000036360000000056360000000814229C
:103EF000410000141414141400004122140800029C
:103F000001510906003E4955592E007C1211127CC0
:103F1000007F49494936003E41414122007F4141ED
:103F2000221C007F49494941007F09090901003EDF
:103F30004149497A007F0808087F0000417F41001D
:103F4000002040413F01007F08142241007F404093
:103F50004040007F020C027F007F0408107F003E7B
:103F60004141413E007F09090906003E4151215E61
:103F7000007F091929460046494949310001017F5E
:103F80000101003F4040403F001F2040201F003FF4
:103F90004038403F006314081463000708700807A6
:103FA00000615149454300007F414100000204087F
:103FB0001020000041417F00000402010204004083
:103FC0004040404000000102040000205454547856
:103FD000007F484444380038444444200038444476
:103FE000487F00385454541800087E090102001814
:103FF000A4A4A47C007F080404780000447D400051
:10400000004080847D00007F102844000000417F34
:104010004000007C04180478007C08040478003810
:104020004444443800FC242424180018242418FC98
:10403000007C0804040800485454542000043F4401
:104040004020003C4040207C001C2040201C003CC4
:104050004030403C004428102844001CA0A0A07C14
:10406000004464544C440000087F41000000007F7D
:1040700000000000417F0800000804081008EFBCA1
:104080008C000000000000000000000000000000A4
:104090000000000058380000000000000000000090
:1040A0000000E3808200000000000000000000002B
:1040B0000000000000000000182424180000000088
:1040C000000000000000E4BDA000008060F8074090
:1040D00020180F08C80808281800010000FF001069
:1040E0000C0340807F0001061800E5A5BD001010FC
:1040F000F01F10F000808282E2928A8680004022C7
:1041000015081661000040807F0000000000E4B840
:104110009600202020FE2020FF202020FF202020AD
:1041200020000000007F4040474444444740404056
:104130000000E7958C00000000FE929292FE9292A1
:1041400092FE0000000008080484621E010001FEC7
:10415000020404080800E781AF00807000FF20100F
:1041600004040404FC0404040400806018070830FC
:10417000000040807F0000000000E5BC80008082DD
:104180008282FE8282828282FE828282800000801F
:1041900040300F0000000000FF0000000000E58537
:1041A000B30000001011161010F0101014131000BE
:1041B00000008181414121110D030D1121414181F7
:1041C0008100E997A80000F801060000020202023F
:1041D000020202FE000000FF0000000000000000DC
:1041E0000040807F0000E7AA9700100CC4544C6484
:1041F000D54644444C54C4140C000000FF404462B3
:10420000554955434040FF000000E688B7000000D4
:1042100000F80808090E08080808F80000000080E7
:10422000601F010101010101010103000000E5B768
:10423000B2000000E28282828282828282FE0000DC
:10424000000000003F404040404040404040407837
:104250000000E6B8A9001060028C0000FE92929265
:104260009292FE00000004047E01407E42427E42A3
:104270007E42427E4000E5BAA6000000FC242424D1
:10428000FC252624FC242424040040308F80844C08
:1042900055252525554C80808000E6B9BF0010606B
:1042A000028C00FE929292929292FE000000040410
:1042B0007E014448507F40407F5048444000E7839F
:1042C0009F00807000FF1008FE424242FA424242C4
:1042D000FE00806018070810FF50484641424C40DD
:1042E000FF00E99BBE00100C055555D5057F05550F
:1042F000555505140C001010108AA96B352525ABF7
:10430000E90810101000E580BC00008060F8070488
:10431000E4A4A4BFA4A4E4040000010000FF404002
:104320007F4A4A4A4A4A7F404000E689930010107B
:1043300010FF109004040404FC040404040004446A
:10434000827F0100000040807F0000000000E997AC
:10435000AD0000F80122202222A2FA22222202FE2F
:10436000000000FF0008040211201F000040807FB1
:104370000000E8ADA60012EAAFAAEA0FFA02888CA4
:104380005724548C84000202EAAAAAABAAABAAAAB8
:10439000AAAAEA020200E68AA500101010FF1090F7
:1043A00000FE82828292A29E00000444827F01006D
:1043B00000FF80432C102C438000E8A7A3002010AE
:1043C000EC27F42CE00022920ED2221E0000806026
:1043D0001F093F89FF000A0909FF09090800E99937
:1043E000A40000FE225A8620102824E3242810204E
:1043F000200000FF040827110D41817F01050931CC
:104400000000E5BFAB0000E000FF1020080808FF37
:104410000808F8000000010000FF008141310D0391
:104420000D3141818100E692A4001010FF1020B4EC
:10443000ADA6B46440B817F0100042827F0100FFBF
:104440000A8AFF80402718678000E7A6BB000404A3
:1044500004F484D4A5A6A4D484F40404040000FEC7
:104460000202123A1613121A3242827E0000E8B09B
:1044700083004042CC0000FE829292FE929282FE25
:10448000000000003F10887F001E1212125E807F25
:104490000000E88A8200044444445F44C444444425
:1044A0005F44C4040400000000000000FF00000896
:1044B000100807000000E998880000F80122A0A277
:1044C000A222FE22AA3202FE000000FF0010130A00
:1044D0004B20170C133880FF0000E580BC000080E3
:1044E00060F80704E4A4A4BFA4A4E404000001004D
:1044F00000FF40407F4A4A4A4A4A7F404000E5A7C1
:104500008B001010F01F10F00040E0584740506042
:10451000C0004022150816210000FE42424242FE21
:104520000000E5B7A50000040404040404FC04042E
:10453000040404040000202020202020203F20200C
:10454000202020202000E4BD9C00008060F807406F
:10455000300FF888888888080800010000FF0000F4
:104560000000FF08080808080000E5AE89008090F8
:104570008C848484F58684848484948C8000008078
:10458000808446492810102C234080000000E585D7
:10459000A80080804020504844C3444850204080B8
:1045A0008000004040444444447F444444444040EC
:1045B0000000E7AEA100886423A2A6AAA2BAA4A321
:1045C000A2262AA26200000000FF4A4A4A4A4A4A3A
:1045D0004BF800000000E5AEB600102C2424A4A483
:1045E00065A624242424A4340C0040494929241419
:1045F00052897F040A111020200000000000FF01F2
:1046000001013109090909897101010101FFFF80D7
:1046100080808080809681808080808080FFFF0104
:10462000818181FD8991A1C1FD81818101FFFF808F
:104630008080809F888482819F80808080FF0000AE
:10464000312E00000000000000000000000000000B
:10465000322E0000000000000000000000000000FA
:1046600080460008000000207000000004250008BB
:10467000F046000870000020D01800001425000843
:1046800000A24A0400000000000000000102030430
:1046900006070809000000000102030401020304E8
:1046A00006070809020406080000000000000000D8
:1046B00000000000000000000000000000000000FA
:1046C00000000000000000000000000000000100E9
:1046D000AA55123456789ABCDEF01122334455663E
:1046E00000000000000000000000000000000000CA
:04000005080000ED02
:00000001FF
